:10000000FC1F0020410600003106000035060000FC
:1000100000000000000000000000000000000000E0
:100020000000000000000000000000003906000091
:1000300000000000000000003D060000E107000095
:1000400010B5064C2378002B07D1054B002B02D0AE
:10005000044800E000BF0123237010BD58000020B9
:1000600000000000A81C0000044B10B5002B03D0BA
:100070000349044800E000BF10BDC0460000000076
:100080005C000020A81C00001B4B1B78002B0AD131
:100090001A4B1B781A4A11785B18DBB21370194B94
:1000A00080225202DA61144A13780133DBB21370F2
:1000B000134B1B78DBB2F02B04D8114B1B78DBB24F
:1000C000092B0BD80D4A13785BB25B425BB21370FD
:1000D00013780B4A11785B18DBB21370064B1B7850
:1000E000074A1278DBB2934200D07047054B80225A
:1000F0005202DA61F9E7C0467400002000000020D7
:10010000A90A00200044004110B51400C3699B07F0
:10011000FCD40368022293430360C369DB07FCD469
:1001200003680122134303600368DB07FCD4C3693F
:10013000DB07FCD4C3699B07F9D4094A2243026058
:10014000C3695B07FCD4C0239B0243608181C36900
:100150009B07FCD4036802221343036010BDC04612
:1001600004000040037EDB07FCD589B2018570479F
:10017000037E5B07FCD5438BDB0705D4438B9B07D2
:1001800002D4438B5B0702D5024B01221A70008D0B
:10019000C0B2704775000020F8B5040003689A8B60
:1001A00012072ED508229A8378329A72802149004C
:1001B0001120585440260621FF315E5482256D00DF
:1001C0005A55144A5168144F3940C02080050143E4
:1001D000516051693940084350611049116010491C
:1001E000116151680F480840802189020143516024
:1001F0005168890B890351605E5500232371207972
:10020000F8BD0822FF329B5CDB06F8D500F02CFB22
:10021000F5E7C04678010020FFFFFF8FF8000020BF
:1002200078000020FF3F00F001600023037143715C
:10023000034B83600B78022213430B707047C04658
:100240009901000010B5394AD36920210B43D361CD
:10025000374B38315A5C012422435A543C22985C73
:10026000493988439854985C09390843985459206F
:10027000195C21431954995C4A3801409954995C9E
:100280005130014399542B4B2B4A5A801A00537812
:100290005BB2002BFBDB294A137801210B4313705F
:1002A0009378DB07FCD4264B1B689B03DB0E1F2BCC
:1002B00036D022490A8D9B012248024013430B8508
:1002C0001F4B1B685B02DB0E1F2B2BD01B490A8DBB
:1002D0001F20824313430B85194B1A689201520F5A
:1002E000072A21D0154B198D1203174801400A43E4
:1002F0001A8519787F220A401A701A7804210A4355
:10030000BAF812687A621A890C218A431A811A890A
:100310000B398A431A818022002101F03EFB10BD77
:100320001A3BC6E7023BD1E7043ADBE70004004092
:1003300000440041000C0040064000000050004115
:10034000246080003FF8FFFFFF8FFFFF780100204F
:10035000F8B5040016001D005A011F4B9B181033FE
:100360005B685B005B0F033301229A40B24227D8DF
:100370006A01194B9B1858698022120602435A6180
:100380006A01154B9B181A0019615B69B104890C4D
:100390009B0B9B030B435361536910490B40536103
:1003A0002B0008335B01E3180222DA715979823A93
:1003B0000A435A711800C3799B07FCD53000F8BD79
:1003C0002F007B1E9F41BF01054BFF1832003800F4
:1003D00001F0DAFA3900D3E778010020FF3F00F09E
:1003E0007800002070B505000B0014001B4A12783D
:1003F000002A14D11A4A1B491164516C890B8903D4
:100400005164516C184801405164A22149006A5C52
:10041000402002436A54114A4439FF39117048227E
:10042000FF32AA5C0020D20716D50D4A526C920406
:10043000920CA24203D20A4A546CA404A40C2200D7
:100440000849180001F0A0FA4823FF330122EA54BA
:10045000024B00221A70200070BDC04676000020BA
:100460007801002038010020FF3F00F0002906D06D
:100470000622FF32835C20210B43835470470622FF
:10048000FF32835C10210B438354F7E70A4A536918
:100490009B0B9B0353610823FF330222C2540622A5
:1004A000FF32815C883BFF3B0B4383540822FF32C1
:1004B000835C9B07FCD570477801002080235B425A
:1004C0000B43DBB28372704770B5A0235B0003223D
:1004D000C254134B5A6C134C2240C02189050A4365
:1004E0005A6440254622FF3285540F4A1A649022EE
:1004F0005200302686545A6B2240114359638021A2
:10050000922252288154094A1A63B022520085541B
:100510005A6F22405A67B2235B00C15470BDC04677
:1005200078010020FFFFFF8F38010020B800002075
:10053000024A53785BB2002BFBDB7047000C004093
:1005400002491022CB681A42FCD0704700080040D4
:1005500070B52C4A53681E218B431C390B435360E2
:10056000294B2A4A9A829A8A0A439A8219000222BD
:10057000CB681A42FCD0264C0123A360FFF7D8FFBA
:10058000244B6360FFF7D4FF8223DB016380FFF716
:10059000CFFF1D4CA38C80229343A384FFF7D0FF91
:1005A0001D4BE362FFF7CCFFA38C1C4A1343A384CB
:1005B000FFF7C6FFA38C02221343A38422008021ED
:1005C0004020D3681942FCD0D3681842F9D0FFF715
:1005D000B7FF0F4D0024AC60FFF7AAFF104B6B6014
:1005E000FFF7A6FF0F4A104B53601048036A1B0227
:1005F0001B0AC02109060B430362946007231360A2
:10060000F2BDC04600400041000800400C0600005A
:10061000000C004001050100B805FF7D040A000040
:100620000007030010E000E0E703000000ED00E039
:100630000EBEFEE70DBEFEE705BEFEE702BEFEE70C
:1006400010B5164A164B9A4213D0164A134B9A42CB
:100650000FD01A00124B9A420BD219000139891A95
:100660008908013189000F4BC91801CB01C28B42A7
:10067000FBD10D4A0D4B9A420CD00BD213000B4A02
:10068000013AD21A920801329200D218002102C314
:100690009342FCD100F00CF8FEE7C04600000020B9
:1006A00058000020AC1C000058000020A8020020C8
:1006B000F0B5C64600B53E4B802252029A605A61A0
:1006C0003C4B1B6801331FD03B4B3C4A13601A1F45
:1006D000FF231A4218D13A49C73BCB5CDB0734D51C
:1006E000384B00211960324B802149029961314B0E
:1006F0001B6883F30888FF239A431300324A9360F0
:100700002EEB1B6A1B681847FFF722FF62B600F04A
:100710000BFF00F06BF80400254B802252029A6018
:100720002A4A2B4B53602848036A1B021B0AC0212C
:1007300009060B4303620023936007331360254BC4
:1007400098461D001E00012719E01E4B1968224B18
:1007500099420AD01B4B20491960204B013B002BCA
:10076000FCD1184B00211960BDE7164B00221A601E
:10077000CAE72B78002B0AD13378002B0DD020004C
:10078000A36898470028F4D043461F70F1E7002083
:1007900000F056FB00F0E8FBFCE700F039FF002812
:1007A000EDD0012000F04CFB00F0DEFBFCE7C04682
:1007B000004400410020000004200000FC01002053
:1007C00000040040FC1F002000ED00E010E000E00D
:1007D000E7030000F80100203581730748E80100B5
:1007E00010B5FFF751FC00F0A5FB10BD10B5054C8E
:1007F000054B2360FFF726FD21682000FFF714FD5D
:10080000200010BD0402002000500041F0B5C1B02E
:1008100006000F001500080001F0C7F84000023084
:100820006B46187003236A4653703C78002C16D030
:100830006808032D15D901226B469D1C013F2C80B1
:1008400002350132BC5C002C01D08242F7DB520041
:10085000002369463000FFF77BFD41B0F0BD012267
:10086000F5E70122F3E70000F0B583B00400056866
:100870000823FF331022EA54B94B1A78B9480270A2
:100880005A78B94E32709978B84A11801188DF7859
:100890003F02394311801979B54A118011885F7977
:1008A0003F02394311809979B24A11801188DB796E
:1008B0001B020B43138082235B004022EA543378EF
:1008C00001781B020B43AC4A934200D195E100DD55
:1008D000A2E00222FF32934200D1C3E101329342EF
:1008E0000BDBC0229200934200D181E1A34A9342E4
:1008F00046D12800FFF7CAFDC1E0812B00D15FE19E
:1009000029DD822B32D19E4B00221A80984B1A8807
:1009100050210A409B490A701A880F210A401A8008
:100920001B889BB2032B00D95DE1964B1B78002BF3
:1009300000D14DE18E4B1B8808335B01ED18AB797C
:100940009B06DB0F8E4A13802068002302228C490D
:10095000FFF7FEFC93E0802B00D0C0E18849002324
:100960000B8020680222FFF7F3FC88E0802252000F
:10097000934200D0B3E101212800FFF777FD7EE02C
:1009800081225200934200D0A9E1794B1A8880213C
:100990000A407C490A701A880F210A401A80734B5A
:1009A0001B889BB2002B00D085E1714B1B889BB24A
:1009B000002B00D17FE16E4B1B889BB2032B00D92B
:1009C00079E1704B1B78002B00D14FE1684B1B88FD
:1009D00008335B01EB189B799B0619D5644A138891
:1009E00008335B01EB1811311971138808335B016F
:1009F000EB18DB795B060BD5138808335B01EB182A
:100A00002031D971138808335B01EB1802221A7167
:100A10002800FFF73BFD32E090221201934200D103
:100A2000C4E00FDD584A934200D149E129DD574A1D
:100A3000934200D053E14D4B1B8863712800FFF7B0
:100A400025FD1CE0D022D200934226D0882212013C
:100A5000934206D1210001C900230122FFF778FC4F
:100A60000DE0A022D200934200D038E12800FFF729
:100A70000DFD3E4B198889B22068FFF71FFD03B0BA
:100A8000F0BD434A934200D175E7424A934200D0F9
:100A900025E12800FFF7FAFCF1E7344B1B881B0A1D
:100AA000012B18D0314B1B881B0A022B22D02F4B55
:100AB0001B881B0A032B4ED12C4B1B88FF22134093
:100AC000012B38D0022B3ED0002B22D00121280050
:100AD000FFF7CCFCD3E72068264B1B889BB2122281
:100AE000122B02D8234B1A8892B200232A49FFF70F
:100AF0002FFCC4E720681F4B1B889BB24322432B6B
:100B000022D81C4B1A8892B200232449FFF720FCFC
:100B1000B5E7234B1B6801932068164B1B889BB2DB
:100B2000FB3A042B02D8134B1A8892B2002301A976
:100B3000FFF70EFCA3E70F4B1A88D2B220681949C1
:100B4000FFF764FE9BE70B4B1A88D2B22068164968
:100B5000FFF75CFE93E701212800FFF787FC8EE793
:100B6000F8000020010200200002002016020020F0
:100B70001002002012020020020300000103000006
:100B80001402002002020020A12100002122000006
:100B9000010B000021200000F019000004000020DB
:100BA000EC190000D0190000DC1900004E4B1B8826
:100BB00023712800FFF76AFC2800FFF785FC5EE739
:100BC0004A4900230B8020680222FFF7C1FB56E749
:100BD000474B1B8808335B01ED18AB79DB06DB0F55
:100BE000424A1380B0E601212800FFF73FFC46E7A8
:100BF00001212800FFF73AFC41E73D4B1A8880218C
:100C00000A403C490A701A880F210A401A80364B64
:100C10001B889BB2002B20D1354B1B889BB2002B2D
:100C20001BD0334B1B889BB2032B16D8314B1B7840
:100C3000002B0AD02E4B1B8808335B01EB182022B7
:100C40005A712800FFF722FC19E7294B1B8808334B
:100C50005B01EB1810225A71F3E701212800FFF71E
:100C600005FC0CE72800FFF711FC08E7204B1B8868
:100C700008335B01EB189B79DB0600D4C8E61C4AFD
:100C8000138808335B01EB1810211971138808339E
:100C90005B01EB18DB799B0600D4B9E613880833B7
:100CA0005B01EB181031D971138808335B01EB1825
:100CB00001221A71ACE601212800FFF7D7FBDEE61E
:100CC00020680D4B1B889BB20822082B02D80A4BC8
:100CD0001A8892B200230949FFF73AFBCFE60121B7
:100CE0002800FFF7C3FBCAE616020020140200200A
:100CF0001002002002020020120200204800002002
:100D000002B583B00190054B18680123012201A9A7
:100D1000FFF71EFB012003B000BDC0460402002007
:100D200010B582B06B46DC1D044B1868012221000F
:100D3000FFF758FB207802B010BDC0460402002027
:100D400010B50748FFF728FA002807D0044B1A68A7
:100D50004823FF33D05CC007C00F10BD0020FCE764
:100D60000402002070B505000C00044B1868012334
:100D70000A002900FFF7ECFA200070BD04020020F1
:100D800070B504000D000748FFF706FA03000020C5
:100D9000002B00D170BD034B18682A002100FFF71B
:100DA00021FBF7E704020020F8B505000F000B480F
:100DB000FFF7F2F900280ED0002F0AD03C00074EB2
:100DC000220029003068FFF70DFB241A2D18002C93
:100DD000F6D13800F8BD0027FBE7C046040200202A
:100DE00010B5030008001100DB689847014B64222E
:100DF0001A8010BD9402002030B50C4B18600C4BCB
:100E00001B68984210D20B4A0B4B1D1C0B4C084917
:100E10004308D3611580137DDB07FCD523689B0055
:100E2000C0180B688342F3D830BDC0466C02002066
:100E3000180200200040004102A5FFFF2002002010
:100E4000012805D0002802D1054B064A1A607047D8
:100E5000034B054A1A60054B01221A70F7E7C0469A
:100E6000840200208C1A0000701A00002402002066
:100E7000F0B585B00A00234B1B78002B3BD004292A
:100E800009D0022912D004784E0021D01023F11885
:100E900069440B3905E0046856001023F1186944D1
:100EA0000B3908000F2730239C4607E00488F3E73E
:100EB0000570240901380B1AB34209D23B002340C4
:100EC0001D003735092BF3D865462B43DDB2EFE71C
:100ED00001A930230B7048334B70013252006E3B36
:100EE0008B548E190333F3700232074B1868FFF7E7
:100EF00077FF05B0F0BD044B1B6801001800FFF739
:100F00006FFFF6E72602002084020020074B1B78C3
:100F1000002B09D172B6EFF30882054B1A60036803
:100F200083F30888436818477047C04625020020AD
:100F30008C0200200A4B1B889BB2002B04D0084A6D
:100F40001388013B9BB21380064B1B889BB2002B7E
:100F500004D0044A1388013B9BB213807047C046FB
:100F60009402002088020020F0B5DE4657464E4627
:100F70004546E0B58DB004A9D04B0A0031CB31C253
:100F800031CB31C211CB11C2CD4A93685B035B0FE9
:100F90009B005958CB4B196093689BB2CA480360B9
:100FA0004B43CA490B60138BDB05DB0FC84A137038
:100FB000C84B00221A60C84B7A321A70C74EC84D0F
:100FC0009B46C84B9A4677E2C74B1B78002B52D101
:100FD000C14B1B78532B55D0522B00D1BDE04F2B6A
:100FE00000D1D3E0482B00D1D6E0572B00D1D9E077
:100FF0006F2B00D1DCE0682B00D1ECE0772B00D127
:10100000FDE0B34A1278002A02D1472B00D10AE151
:10101000542B00D11BE14E2B00D122E1562B00D1E5
:101020002EE1582B00D185E1592B00D192E15A2BAA
:101030005BD1AC4B1B68A74A1268002B00D1EBE1D7
:1010400091469944002739001700387800F002FBD8
:10105000010001374F45F8D107000122A349A04BF9
:101060001868FFF7BDFE02AB082252429C4662445C
:1010700094460F20D8E19A4B186802229C49FFF74A
:10108000AFFEA5E79B4B1A689B4B1B689A421DD984
:101090009A48016801310160013397480360914823
:1010A0000068D21A824200D90200954F3A60894BFB
:1010B000186800F069FC3B688F490A68D2180A601A
:1010C0008E490A68D2180A608E4A13708A4A1368D9
:1010D000013B1360894A1368013B1360894B1B78FD
:1010E000804A11688B422BD3C0467B4B7A221A7000
:1010F0007C4B00221A607C4B1B78002B00D0A7E1B0
:10110000FD4A3368013313607C490A6801320A6082
:10111000784A1268934200D3CEE123681B78FF2BF4
:10112000EED0232B00D14FE71A00303A092A00D91C
:1011300095E16C490A681201303B13430B60DFE70D
:10114000C91A644B1868664B1B689B69984700284E
:10115000CAD06D4B64221A80C6E75D4B1B78002B0A
:1011600008D080239B055B4A12689A4202D2594BF1
:10117000664A1A605B4B1968564B1868584B1B68D7
:101180005B699847624B64221A80AEE7514B1B683B
:10119000544A12681A70A8E74E4B1B68514A1268ED
:1011A0001A80A2E74B4B1B684E4A12681A609CE7F4
:1011B000474B1B78002B08D0464B1B68043B554A15
:1011C000934202D8434B474A1A60424B18680121A8
:1011D000FFF74EFE89E73E4B1B78002B06D03D4BB8
:1011E0001A68043A4B4900238A4202D9394B1B68DA
:1011F0001B883C4803600221FFF73AFE75E7344B39
:101200001B78002B06D0334B1A68043A414900235F
:101210008A4202D92F4B1B681B68324803600421A5
:10122000FFF726FE61E72F4B1868FFF76FFE3A4B7A
:101230001B6883F3088862B6384B1B78002B00D1FB
:1012400053E7274B1B681B68062098474DE7264B42
:1012500001221A70224B186801322549FFF7C0FDA0
:1012600043E7214B1B78002B03D01F4B00221A7041
:101270003BE702221E491A4B1868FFF7B1FDF4E75D
:10128000174F012226493868FFF7AAFD0322254996
:101290003868FFF7A5FD012223493868FFF7A0FD54
:1012A0000E2222493868FFF79BFD2149134B196034
:1012B00038681722FFF794FD17E7C0463C1A000074
:1012C00000400041200200201C02002018020020E3
:1012D0002502002080020020270200202C0200208E
:1012E000840200202802002026020020301A00007C
:1012F000041A000078020020700200207C02002006
:101300009A0A002074020020880200200050002069
:1013100094020020FBFFFF1F8C020020240200200B
:10132000081A00006C1A00000C1A00005C1A000079
:10133000101A0000002A0AD1694B1868FFF75CFDFB
:10134000684B186803226849FFF74AFDCDE6802004
:101350008001F3E7624B1B68002B0AD1634B1A68CC
:10136000634B1A605F4B186803226249FFF738FD30
:10137000BBE6002A05D080239B015F4A12689A428F
:1013800013D1574B1A689708594B1B689846574B0F
:101390001B689C4659494B68802083434B60032A55
:1013A000E0D90800564B994615E080208001FFF7F0
:1013B00023FDE6E7002304E03B0002E06246BC4672
:1013C0001700504A0280027DD207FCD59A0094444F
:1013D0009044FF1AC6D04C4B0380037DDB07FCD53D
:1013E000474B1B680193032BE4D9002FE4D0002165
:1013F00000233A0067469446424652587A500133D9
:101400004A46126892089342D8D204316345F3D118
:101410006346BC461F00D4E700271EE637321100A2
:10142000D971013B634507D002003A403F091100E2
:101430003031092AF4DDF1E72A4F082202A9386881
:10144000FFF7CEFC032231493868FFF7C9FC4CE6B0
:10145000244B186801322E49FFF7C2FC50E61A00EF
:10146000413A052A06D81E490A681201373B134340
:101470000B6045E61A00613A052A06D818490A6841
:101480001201573B13430B603AE62C2B05D05A460A
:10149000137000235246136032E6114B134A196849
:1014A000116000221A602BE600231A4A13601A4AC0
:1014B0001A4911601A4A13602B681B6940213000D9
:1014C00098470028F0D0174B64221A80114B1860FF
:1014D000114B124A1A60124B00221A600E4C1CE685
:1014E0002802002084020020281A00008002002028
:1014F000900200202C1A00006C02002000400041E5
:101500002A02002884A5FFFF44A5FFFF341A00002B
:10151000381A0000780200207C0200202C020020F3
:10152000700200208802002010B51E4B4A215A5C30
:10153000012422435A543522985C3B3988439854FD
:10154000985C0D39084398544B20195C2143195479
:10155000995C3C3801409954995C1130014399548D
:10156000114A136A04210B431362104B104A5A802C
:101570001A0053785BB2002BFBDBC42292030D49A7
:101580000D48FEF7C1FD00230C4A13700C4A13707E
:101590000C4A13700C4A13700C4A13700C4A1370E7
:1015A00010BDC0460044004100040040000C004053
:1015B000144000002AF60000000800429C020020AF
:1015C0009E0200209F020020A0020020A102002015
:1015D0009D02002010B5C1B20248FEF7C3FD0120F4
:1015E00010BDC04600080042024B187E4007C00FE5
:1015F0007047C0460008004210B5FFF7F5FF00280D
:10160000FBD00248FEF7B4FD10BDC0460008004202
:1016100010B5FFF7E9FF03000020002B00D110BD3B
:10162000FFF7EAFF233843425841F8E770B504005A
:101630000E1E06D045182078FFF7CCFF0134A542D6
:10164000F9D1300070BD10B50400FFF7D5FF207050
:10165000012010BD0B0A584040000902024BC05A3D
:10166000484080B27047C046A81A0000F0B5DE4678
:1016700057464E464546E0B583B0019000914E4B2B
:1016800000221A70002905D14C4B01321A704A4CC5
:1016900000251EE04A4B00991980484B00221A7021
:1016A0000B004A06F3D0803319007F239943009141
:1016B000EDE7414B1D70FFF79FFFC0B23E4B1B781B
:1016C000002B0CD03C4B00221A7000260CE0152891
:1016D0002ED0FFF791FF2378002BEAD1C0B2432828
:1016E00023D07128F3D10026300003B0F0BCBB46F4
:1016F000B246A946A046F0BD2F4B00221A70F3E770
:10170000FB460133FBB29B46009B803B0093019B51
:10171000803301933EE00420FFF75CFFFFF76CFF8E
:10172000264B00221A700126DEE701239B4601E0CA
:1017300001239B46224B98469946204B9A462CE023
:101740003D78013B4A46138001372800FFF742FFEE
:1017500021002800FFF77EFF0400013E002E08D084
:1017600043461B88002BEBD152461578002DECD058
:10177000E6E7000AC0B2FFF72DFFE0B2FFF72AFF4D
:10178000FFF73AFF0C4B1B78002BB5D1FF23184015
:101790000628B5D0009B002BBDD00120FFF71AFF13
:1017A0005846FFF717FF5B46D843C0B2FFF712FF5A
:1017B000019F80260024D3E79D020020A202002082
:1017C000A4020020F0B5DE4657464646C0B50600E6
:1017D0000F1E2BD0002400239846194B9A46194B14
:1017E0009B4608E0731C35701E00802F18D0013412
:1017F000A4B2A7421ED0FFF7FFFEC5B253461B7826
:10180000002B15D141462800FFF724FF80465B4698
:101810001B88002BE6D10C4B1B78002BE7D0E1E7AF
:10182000084A1288013A07490A80E0E7884601E041
:10183000012398464046E0BCBB46B246A846F0BDF0
:101840009D020020A4020020A2020020F0B5D6468E
:101850004F464646C0B582B08146474B00221A70BB
:10186000002904D1454B01321A70642512E0444B23
:101870001980424B00221A70F7E7013CFFF7B4FED3
:10188000002802D1002CF8D101E0002C63D1013DE9
:10189000002D6AD04320FFF79DFE3A4CEEE7364B11
:1018A00000221A70002560E0022101A8FFF78AFFDC
:1018B00080214846FFF786FF050053461B78002B22
:1018C00018D02D4B1B78002B40D10024FF2700257A
:1018D000002C46D0FFF790FE3378002BDFD1384044
:1018E0000128E1D02C000428F2D10620FFF772FE77
:1018F0000024EBE7FFF780FE000287B2FFF77CFED3
:10190000381880B21C4B1B78012BDAD085420AD1E3
:1019100001AB1B78434506D14346DB4301AA52780D
:10192000DBB29A4203D01820FFF754FEC9E7062025
:10193000FFF750FE104B1B78002B07D143460133B5
:10194000DBB2984680239C46E144BFE70A4B002265
:101950001A70002509E0012398460124064EB2467C
:10196000B4E7064B00221A700125280002B0E0BC43
:10197000BA46B146A846F0BD9D020020A202002052
:10198000A402002000350C00002310B59A4200D1BB
:1019900010BDCC5CC4540133F8E7030082189342B5
:1019A00000D1704719700133F9E70023C25C01339D
:1019B000002AFBD1581E7047F8B5C046F8BC08BCD9
:1019C0009E467047F8B5C046F8BC08BC9E467047B6
:1019D00041726475696E6F204C4C430041726475AE
:1019E000696E6F205A65726F0000000004030904DD
:1019F000120100020200004041234D0000020102DA
:101A0000200900000A0D0000760000002000000000
:101A1000204A756E20203920323032322031373A58
:101A200033323A34330A0D00580A0D00590A0D00BA
:101A30005A000000230A0D003E00000008000000CC
:101A400010000000200000004000000080000000A6
:101A50000001000000020000000400005B4172640D
:101A600075696E6F3A58595A505D0000322E300039
:101A7000D5150000F9150000E91500002D1600002D
:101A8000471600006D1600004D180000010D000003
:101A9000210D0000410D0000650D0000810D0000CA
:101AA000650D0000A90D00000000211042206330E8
:101AB0008440A550C660E770088129914AA16BB1A6
:101AC0008CC1ADD1CEE1EFF131121002733252224E
:101AD000B5529442F772D662399318837BB35AA3F6
:101AE000BDD39CC3FFF3DEE362244334200401141E
:101AF000E664C774A44485546AA54BB52885099546
:101B0000EEE5CFF5ACC58DD55336722611163006ED
:101B1000D776F6669556B4465BB77AA71997388795
:101B2000DFF7FEE79DD7BCC7C448E5588668A778AD
:101B30004008611802282338CCC9EDD98EE9AFF9E5
:101B4000488969990AA92BB9F55AD44AB77A966A8D
:101B5000711A500A333A122AFDDBDCCBBFFB9EEB35
:101B6000799B588B3BBB1AABA66C877CE44CC55C5D
:101B7000222C033C600C411CAEED8FFDECCDCDDD85
:101B80002AAD0BBD688D499D977EB66ED55EF44E2D
:101B9000133E322E511E700E9FFFBEEFDDDFFCCFD5
:101BA0001BBF3AAF599F788F8891A981CAB1EBA129
:101BB0000CD12DC14EF16FE18010A100C230E320A5
:101BC0000450254046706760B9839893FBA3DAB34D
:101BD0003DC31CD37FE35EF3B1029012F322D232F5
:101BE0003542145277625672EAB5CBA5A89589851D
:101BF0006EF54FE52CD50DC5E234C324A014810445
:101C00006674476424540544DBA7FAB79987B897EC
:101C10005FE77EF71DC73CD7D326F2369106B01694
:101C200057667676154634564CD96DC90EF92FE9AC
:101C3000C899E9898AB9ABA94458654806782768E4
:101C4000C018E1088238A3287DCB5CDB3FEB1EFB8C
:101C5000F98BD89BBBAB9ABB754A545A376A167A34
:101C6000F10AD01AB32A923A2EFD0FED6CDD4DCD5C
:101C7000AABD8BADE89DC98D267C076C645C454C84
:101C8000A23C832CE01CC10C1FEF3EFF5DCF7CDF2C
:101C90009BAFBABFD98FF89F176E367E554E745ED4
:101CA000932EB23ED10EF01E000000000114000081
:101CB000090243000201008032090400000102020F
:101CC0000000052400100104240200052406000180
:101CD0000524010001070583030800FF0904010032
:101CE000020A000000070581024000000705020209
:101CF0004000000000C20100000008006900000070
:101D000063000020FFFFFFFFFFFFFFFFFFFFFFFF5C
:101D1000FFFFFFFFFFFFFFFFFFFFFFFFFFFFFFFFD3
:101D2000FFFFFFFFFFFFFFFFFFFFFFFFFFFFFFFFC3
:101D3000FFFFFFFFFFFFFFFFFFFFFFFFFFFFFFFFB3
:101D4000FFFFFFFFFFFFFFFFFFFFFFFFFFFFFFFFA3
:020000040040BA
:00000001FF
