:10000000001F0020D9050000C9050000CD05000033
:1000100000000000000000000000000000000000E0
:10002000000000000000000000000000D1050000FA
:100030000000000000000000D50500006D07000072
:1000400010B5064C2378002B07D1054B002B02D0AE
:10005000044800E000BF0123237010BDC000002051
:10006000000000008C210000084B10B5002B03D0CD
:100070000749084800E000BF07480368002B00D18B
:1000800010BD064B002BFBD09847F9E7000000009D
:10009000C40000208C210000BC00002000000000F3
:1000A0001B4B1B78002B0AD11A4B1B781A4A11786C
:1000B0005B18DBB2137080225202184BDA61144ACB
:1000C00013780133DBB21370134B1B78DBB2F02BC8
:1000D00004D8114B1B78DBB2092B0BD80D4A1378CF
:1000E0005BB25B425BB2137013780B4A11785B18FA
:1000F000DBB21370064B1B78074A1278DBB29342CF
:1001000000D0704780225202044BDA61F9E7C04602
:10011000DC0000200000002001000020004400411D
:10012000F8B5040003689A8B120707D40822FF323F
:100130009B5CDB062FD500F05DFB2CE008229A8348
:1001400078329A72112080214900585440260621A5
:10015000FF315E5482256D005A55104A5168104F88
:100160003940C0208005014351605169394008433E
:1001700050610C4911600C49116151680B480840ED
:1001800080218902014351605168890B89035160C4
:100190005E55002323712079F8BDC0460C02002073
:1001A000FFFFFF8F0C0100208C010020FF3F00F0BB
:1001B0000160002303714371034B83600B780222BB
:1001C00013430B707047C0462101000010B5394A37
:1001D000D36920210B43D361374B38315A5C01245A
:1001E00022435A543C22985C493988439854985C7D
:1001F0000939084398545920195C21431954995CD2
:100200004A3801409954995C5130014399542B4A22
:100210002B4B5A801A0053785BB2002BFBDB294A28
:10022000137801210B4313709378DB07FCD4264B22
:100230001B689B03DB0E1F2B36D022490A8D9B01C6
:100240002248024013430B851F4B1B685B02DB0EE9
:100250001F2B2BD01B490A8D1F20824313430B8574
:10026000194B1A689201520F072A21D0154B198D8C
:100270001203174801400A431A8519787F220A4061
:100280001A701A7804210A431A70124858621A899F
:100290000C218A431A811A890B398A431A818022D8
:1002A000002101F0E4F810BD1A3BC6E7023BD1E79C
:1002B000043ADBE70004004000440041064000002F
:1002C000000C004000500041246080003FF8FFFF18
:1002D000FF8FFFFF0C020020F0B5C64600B50400FA
:1002E00016001D0098465A01214B9B1810335B687D
:1002F0005B005B0F033301229A40B2422BD86A01A4
:100300001B4B9B1858698022120602435A616A01EE
:10031000174B9B181A0019615B69B104890C9B0B80
:100320009B030B435361536912490B4053610835DA
:100330006D0165190223EB716A79823B13436B717E
:100340004046083040012018C3799B07FCD5300097
:1003500004BC9046F0BD2F007B1E9F41BF01064BA1
:10036000FF183200380001F079F83900CFE7C046B5
:100370000C020020FF3F00F08C01002070B505004A
:100380000E0014001B4B1B78002B14D11A4B1B4A78
:100390001A645A6C920B92035A645A6C18490A40B8
:1003A0005A64A2225200835C40210B438354443A96
:1003B000FF3A104B1A704823FF33EB5C0020DB0739
:1003C00016D50D4B5B6C9B049B0CA34203D20A4BCE
:1003D0005C6CA404A40C22000849300001F03EF833
:1003E00001224823FF33EA540022024B1A702000F6
:1003F00070BDC046DD0000200C0200204C01002032
:10040000FF3F00F0002906D10622FF32835C102155
:100410000B43835470470622FF32835C20210B4339
:100420008354F7E70A4A53699B0B9B0353610222EB
:100430000823FF33C2540622FF32815C883BFF3B16
:100440000B4383540822FF32835C9B07FCD5704723
:100450000C02002080235B421943C9B281727047AD
:1004600070B50322A0235B00C254134B5A6C134C8B
:100470002240C02189050A435A6440254622FF32A2
:1004800085540F4A1A6430269022520086545A6BC3
:100490002240114359638021922252008154094A1B
:1004A0001A63B022520085545A6F22405A67B22311
:1004B0005B00C15470BDC0460C020020FFFFFF8FDF
:1004C0004C010020CC010020024A53785BB2002B83
:1004D000FBDB7047000C004002491022CB681A4237
:1004E000FCD070470008004070B52C4A53681E21AC
:1004F0008B431C390B435360294B2A4A9A829A8AB0
:100500000A439A8219000222CB681A42FCD0264C78
:100510000123A360FFF7D8FF244B6360FFF7D4FFEC
:100520008223DB016380FFF7CFFF1D4CA38C802269
:100530009343A384FFF7D0FF1D4BE362FFF7CCFF8B
:10054000A38C1C4A1343A384FFF7C6FFA38C02228B
:100550001343A384220080214020D3681942FCD099
:10056000D3681842F9D0FFF7B7FF0F4D0024AC60F5
:10057000FFF7AAFF104B6B60FFF7A6FF0F4A104B67
:1005800053601048036A1B021B0AC02109060B4373
:10059000036294600723136070BDC04600400041B1
:1005A000000800400C060000000C0040010501009E
:1005B000B805FF7D040A00000007030010E000E01A
:1005C000E703000000ED00E00EBEFEE70DBEFEE713
:1005D00005BEFEE702BEFEE710B5194A194B9A4266
:1005E00015D0194A164B9A4211D01A00154B9A424F
:1005F0000DD2164A03339B1A9B0801339B0000223D
:100600000F4811498C58845004329A42FAD1104A4A
:10061000104B9A420BD00AD2D3430E495B180321E8
:100620008B4304339B18002102C29A42FCD10A4A30
:10063000536880210B43536000F010F8FEE7C0467A
:1006400000000020C00000209021000004000020D5
:10065000C0000020140300200040004170B5364B5C
:10066000802252029A605A61344B1B68013327D0B2
:10067000334B344A1360043BFF22134220D1C73A64
:1006800031498A5CD20713D50021304A116080219C
:100690004902294A9161294A126882F30888FF2297
:1006A00093432B4A9360274B1B681B68184707E04E
:1006B000264A1168274A914221D10022234B1A6011
:1006C000FFF712FF62B600F057F80400224800F06E
:1006D00037FF80225202184B9A60204A204B536009
:1006E0001B48036A1B021B0AC02109060B43036255
:1006F000002393600733136001261A4D0DE015495E
:10070000124A1160184A013A002AFCD100210F4A0E
:100710001160BCE72B78002B07D12000A368984715
:100720000028F7D00F4B1E70F4E7002000F038FBD4
:1007300000F0B8FBFCE7C046004400410040000068
:10074000044000008C02002000040040FC1F002038
:1007500000ED00E035817307781E000010E000E036
:10076000E7030000DE00002048E8010010B5FFF7B5
:1007700097FC00F07DFB10BD10B5054C054B2360C8
:10078000FFF724FD21682000FFF712FD200010BDB7
:10079000900200200050004170B5C0B005000C0070
:1007A0001600080000F0D6FE400002306B461870BC
:1007B00003236A4653702378002B17D07608012E46
:1007C00016DD012269460231881C01340B8001329A
:1007D0002378002B02D00100B242F5DB5200002347
:1007E00069462800FFF778FD40B070BD0122F5E7AB
:1007F0000122F3E7F0B583B0050004681022082356
:10080000FF33E254B74B1A78B74802705A78B74EA4
:1008100032709978B64A11801188DF783F023943E7
:1008200011801979B34A118011885F793F023943E9
:1008300011809979B04A11801188DB791B020B4332
:100840001380402282235B00E254337802781B023B
:100850001343AA4A934200D11EE125DC80225200B4
:10086000934255D012DD81225200934200D170E1B3
:1008700000DA6AE1FF32FF32934200D107E1A04A79
:1008800093420CD12000FFF7CDFD3CE0812B00D13D
:10089000BFE0822B00D1C4E0802B00D1B1E0012168
:1008A0002000FFF7AFFD2EE090221201934200D10D
:1008B00096E012DD934A934200D1B2E125DD924ADF
:1008C000934200D1B1E1914A9342E8D1884B1B8811
:1008D0006B712000FFF7A6FD15E0D022D2009342F5
:1008E0001BD088221201934200D183E0A022D200C3
:1008F0009342D4D12000FFF795FD7D4B198889B232
:100900002868FFF7A7FD03B0F0BD814A9342C6D126
:1009100001212000FFF776FDF5E7754B1B881B0AC8
:10092000012B18D0724B1B881B0A022B22D0704B54
:100930001B881B0A032B4ED16D4B1B88FF221340D3
:10094000012B38D0002B24D0022B3CD001212000D9
:10095000FFF758FDD7E72868674B1B889BB2122228
:10096000122B02D8644B1A8892B200236949FFF710
:10097000B3FCC8E72868604B1B889BB24322432B1B
:1009800002D85D4B1A8892B200236349FFF7A4FC9A
:10099000B9E7624B1B6801932868574B1B889BB2D1
:1009A0000422042B02D8544B1A8892B2002301A9C6
:1009B000FFF792FCA7E7504B1A88D2B22868584933
:1009C000FFF7EAFE9FE74C4B1A88D2B228685549D8
:1009D000FFF7E2FE97E701212000FFF713FD92E702
:1009E000434B1B882B712000FFF71CFD2000FFF7F5
:1009F00037FD88E7291D286800230122FFF76CFCDA
:100A000081E7494900230B8028680222FFF764FC34
:100A100079E7454900230B8028680222FFF75CFC38
:100A200071E70022404B1A80324B1A8850210A404D
:100A30003E490A701A880F210A401A801B889BB20F
:100A4000032B1FD8394B1B78002B10D0294B1B8848
:100A500008335B01E418A3799B06DB0F324A13804D
:100A60002868002302223049FFF736FC4BE7214B70
:100A70001B8808335B01E418A379DB06DB0F2A4AE5
:100A80001380EDE701212000FFF7BCFC3BE70121CB
:100A90002000FFF7B7FC36E7164A13887F218B4307
:100AA000DBB222490B7013880F210B401380104BCF
:100AB0001B889BB2002B43D113889BB2002B3FD0E5
:100AC00013889BB2032B3BD8184B1B78002B2FD0DD
:100AD000138808335B01E31820225A712000FFF7C6
:100AE000A1FC10E70C010020E0000020DF00002046
:100AF000E8000020E2000020E400002002030000E3
:100B00000103000021200000A1210000212200009B
:100B1000010B0000841E000004000020801E000065
:100B2000981E0000A41E0000E6000020E100002046
:100B3000454B1B8808335B01E31810225A71CDE73F
:100B400001212000FFF75EFCDDE62000FFF76AFCD4
:100B5000D9E63D4A13887F218B43DBB23B490B70BA
:100B600013880F210B401380394B1B889BB2002B3D
:100B700052D113889BB2002B4ED013889BB2032B0B
:100B80004AD8324B1B78002B23D0138808335B01E3
:100B9000E3189B799B0618D5138808335B01E3188B
:100BA00011311971138808335B01E318DB795B0697
:100BB0000BD5138808335B01E3182031D9711388F2
:100BC00008335B01E31802221A712000FFF72AFCA8
:100BD00099E61D4B1B8808335B01E3189B79DB0604
:100BE000F3D5194A138808335B01E31810211971F2
:100BF000138808335B01E318DB799B06E5D513887E
:100C000008335B01E3181031D971138808335B0195
:100C1000E31801221A71D8E701212000FFF7F2FB47
:100C200071E62000FFF7FEFB6DE62868094B1B8884
:100C30009BB20822082B02D8064B1A8892B20023D6
:100C40000549FFF749FB5EE6E2000020E1000020D5
:100C5000E8000020E40000204800002000B583B038
:100C60000190054B18680123012201A9FFF734FB0D
:100C7000012003B000BDC0469002002010B582B034
:100C80006B46DC1D044B186801222100FFF776FB40
:100C9000207802B010BDC0469002002010B5074871
:100CA000FFF73EFA03000020002B06D0034B1A6822
:100CB0004823FF33D05CC007C00F10BD9002002056
:100CC00070B505000C00044B186801230A002900C8
:100CD000FFF702FB200070BD9002002070B50400F9
:100CE0000D000848FFF71CFA0023002801D1180066
:100CF00070BD044B18682A002100FFF73FFB03007A
:100D0000F5E7C04690020020F8B505000E000B483C
:100D1000FFF706FA00280ED0002E0AD03400074F45
:100D2000220029003868FFF729FB241A2D18002C0F
:100D3000F6D13000F8BD0026FBE7C0469002002047
:100D400010B50C00C3681100200098476422014BC5
:100D50001A8010BDFC00002030B50C4B18600C4B05
:100D60001B68984210D20B4A0B4B1D880B4C08494C
:100D70004308D3611580137DDB07FCD523689B00F6
:100D8000C0180B688342F3D830BDC046F000002085
:100D9000AC02002000400041B21E0000B80200205A
:100DA000002802D1014A024B1A6070470C1F000054
:100DB00000030020F0B585B0214B1B78002B37D005
:100DC00004291CD0022923D004784E0004AB9819C2
:100DD0000B38002E18D101AB30221A7048325A70ED
:100DE0004A1C52000A2199549E190331F1700232B3
:100DF000144908681900FFF7A3FF05B0F0BD0468A7
:100E00004E0004AB98190B3800250F22302708E05C
:100E10000488F5E737330370240901380135B542FA
:100E2000D9D213002340092BF4D83B430370F3E7D6
:100E3000044B1B680A0001001800FFF781FFDCE784
:100E4000EC00002000030020074B1B78002B09D189
:100E500072B6EFF30883054A1360036883F30888CA
:100E6000436818477047C046EB0000200403002089
:100E70000A4B1B889BB2002B04D0084A1388013B05
:100E80009BB21380064B1B889BB2002B04D0044AF4
:100E90001388013B9BB213807047C046FC000020C2
:100EA000F4000020F0B5D6464F464646C0B58CB09B
:100EB00004A9D04B0A0031CB31C231CB31C211CBA6
:100EC00011C2CD4A93685B035B0F9B005958CB4B13
:100ED000196093689BB2CA4803604B43C9490B60D1
:100EE000138BDB05DB0FC84A13700022C74B1A6057
:100EF0007A32C74B1A70C14D69E2C64B1B78002B82
:100F00004DD1C34B1B78532B50D0522B00D1BCE09A
:100F10004F2B00D1D1E0482B00D1D4E0572B00D18A
:100F2000D7E06F2B00D1DAE0682B00D1EAE0772B15
:100F300000D1FFE0B44A1278002A02D1472B00D139
:100F400010E1542B00D121E14E2B00D128E1562B8A
:100F500000D134E1582B00D147E1592B00D18EE16B
:100F60005A2B57D1AC4B1E68A84B1B68002E00D1E2
:100F7000DDE11F009E19002301933878019900F0EC
:100F800061FA01900137BE42F7D1A44B18680122E3
:100F9000A349FFF7D5FE019B07220F26CEE19F4B09
:100FA000186802229F49FFF7CBFEAAE79E4B1A68FA
:100FB0009E4B1B689A421ED99D4801680131016011
:100FC00001339A480360D31A934A126893424CD271
:100FD000984A13608D4B1868964E326800F03EFABE
:100FE000336892490A68D2180A6091490A68D2188F
:100FF0000A60914A13708D4A1368013B13608C4A52
:101000001368013B13608C4B1B78834A11688B4239
:101010002ED3C0467A227E4B1A7000227E4B1A6075
:101020007C4B1B78002B00D09DE1804A1368013374
:1010300013607F490A6801320A607B4A1268934252
:1010400000D3C4E123681B78FF2BEED0232B00D103
:1010500053E71A00303A092A00D98BE16E490A6831
:101060001201303B13430B60DFE7724B1A60B1E7AC
:10107000C91A664B1868694B1B689B69984700281A
:10108000C7D064226D4B1A80C3E75F4B1B78002BDF
:1010900007D06B4B5D4A12689A4202D8694A5B4B93
:1010A0001A605D4B1968594B18685C4B1B685B698B
:1010B00098476422644B1A80ACE7544B1B68564A2D
:1010C00012681A70A6E7514B1B68534A12681A80BF
:1010D000A0E74E4B1B68504A12681A609AE74A4BC9
:1010E0001B78002B08D0494B1B68043B574A93429E
:1010F00002D8494A454B1A60444B18680121FFF752
:1011000059FE87E7404B1B78002B09D03F4B1B68EB
:10111000043B4E4A934203D800223F4B1A6004E03E
:101120003A4B1B681A883C4B1A6002213A48FFF779
:1011300041FE6FE7344B1B78002B09D0334B1B6803
:10114000043B424A934203D80022334B1A6004E026
:101150002E4B1B681A68304B1A6004212E48FFF78B
:1011600029FE57E72C4B1868FFF76EFE384B1B68BB
:1011700083F3088862B6374B1B78002B00D149E710
:10118000264B1B681B680620984743E70122214B2A
:101190001A70224B186801322249FFF7D1FD39E756
:1011A0001C4B1B78002B03D000221A4B1A7031E71E
:1011B0001A4B186802221B49FFF7C2FDF4E7174ECD
:1011C000012225493068FFF7BBFD0322234930681F
:1011D000FFF7B6FD012222493068FFF7B1FD306804
:1011E0000E222049FFF7ACFD14E7002A3CD10A4B40
:1011F00018683BE0B81E000000400041B802002023
:10120000B0020020AC020020EB000020FC02002015
:10121000A8020020EC0000200803002000030020AA
:10122000001F0000EC1E0000A0020020B4020020FD
:10123000A40200200C0300209C020020F4000020E7
:10124000FFFFFF1F00500020FC000020FBFFFF1FDE
:1012500004030020EA000020F01E0000E81E000049
:10126000F41E0000D81E000080208001FFF774FDEE
:10127000614B186803226149FFF762FDCAE6604BC3
:101280001B68002B0AD15F4B1A685F4B1A605A4BE0
:10129000186803225D49FFF753FDBBE6002A08D01A
:1012A00080239B015A4A12689A4202D01800FFF725
:1012B00053FD534B1E68B608534B1B689C46514B5D
:1012C0001F68544A536880218B435360002EDED040
:1012D0001000514B1B889A46504B9946504B9846EC
:1012E0000AE0002342460280027DD207FCD59A0024
:1012F000BF189444F61ACAD053460380037DDB0717
:10130000FCD54B461B68032BEBD9002E0DD00022D9
:10131000002361468958B9500133296889088B42F6
:10132000E0D20432B342F4D1DCE73300DAE7002341
:1013300001932AE602A95054013A09D33100194019
:101340001B09080030300929F4DD37310800F1E7C6
:10135000294E08223068FFF7F3FC30680322314938
:10136000FFF7EEFC56E6244B186801322E49FFF7D2
:10137000E7FC5AE61A00413A052A06D820490A68CD
:101380001201373B13430B604FE61A00613A052AFE
:1013900006D81B490A681201573B13430B6044E609
:1013A0002C2B05D0214A13700022154B1A603CE605
:1013B000134B144A1968116000221A6035E60023A5
:1013C0001B4A13601B491C4A11601C4A13600A4BDC
:1013D0001B681B694021174898470028EFD06422FA
:1013E000174B1A80124B1860124A134B1A600022D6
:1013F000124B1A60104C25E600030020F81E000076
:1014000008030020FC020020F8000020FC1E000061
:10141000F000002000400041B41E0000B80200208F
:1014200004A5FFFF041F0000081F0000A802002001
:10143000A0020020BC020020A4020020B402002070
:10144000F40000200B0A43405B000902024A985A4C
:10145000484080B27047C046281F0000002310B5E6
:101460009A4200D110BDCC5CC4540133F8E70300AC
:101470008218934200D1704719700133F9E70000D8
:1014800070B505000E00002804D08369002B01D13F
:1014900000F02CFAAB69AC68002B02D1280000F0F8
:1014A00025FA244B9C420FD16C68A3891B0702D5F7
:1014B0002369002B20D12100280000F0A9F8002882
:1014C0001AD00120404270BD1B4B9C4201D1AC6838
:1014D000EBE71A4B9C42E8D1EC68E6E7013B0136AA
:1014E000A360002B04DAA269934216DB0A2914D008
:1014F00023685A1C226019703178A3680029EDD145
:10150000013BA360002B0FDA22000A31280000F013
:1015100029F8431CD5D00A20D5E72200280000F086
:1015200021F8431CE8D1CCE70A2023685A1C22602A
:101530001870C8E74C2100006C2100002C2100002D
:1015400010B5034B01001868FFF79AFF10BDC046A5
:10155000500000200023C25C0133002AFBD1581E3A
:1015600070470000F8B505000E001400002804D0F4
:101570008369002B01D100F0B9F9224B9C422DD197
:101580006C68A369A360A3891B0731D52369002B6D
:101590002ED023682269F7B2981A6369F6B298428E
:1015A00005DB2100280000F033F9002826D1A368CC
:1015B0000130013BA36023685A1C22601F706369DD
:1015C000984204D0A389DB071AD50A2E18D121002E
:1015D000280000F01DF9002812D00FE00A4B9C42B1
:1015E00001D1AC68CDE7094B9C42CAD1EC68C8E791
:1015F0002100280000F00CF80028CAD0012676420D
:101600003000F8BD4C2100006C2100002C210000AE
:10161000364B70B51D6806000C00002D05D0AB6977
:10162000002B02D1280000F061F9314B9C420FD110
:101630006C680C23E25E93B219072DD4D90611D43D
:1016400009230120336037331343A381404270BD27
:10165000284B9C4201D1AC68EBE7274B9C42E8D178
:10166000EC68E6E75B0713D5616B002908D023001F
:101670004433994202D0300000F03AFA0023636309
:101680002422A3899343A3810023636023692360F9
:101690000823A2891343A3812369002B0BD1A02126
:1016A0008022A389890092000B40934203D021003D
:1016B000300000F0D9F90123A289134011D0002392
:1016C000A36063695B42A361002023698342BED1AA
:1016D0000C23E25E1306BAD540231343A3810138DD
:1016E000B5E7920700D46369A360EDE750000020DE
:1016F0004C2100006C2100002C210000F7B58A89E4
:1017000005000C00130760D44B68002B04DC0B6C45
:10171000002B01DC0020FEBDE76A002FFAD0002379
:101720002E682B6080235B011A4034D0606DA38942
:101730005B0706D56368C01A636B002B01D0236C6E
:10174000C01A0200216A00232800E76AB847A1896D
:10175000431C06D12B681D2B31D82C4ADA40D30705
:101760002DD50023636023692360CB0405D5431C7A
:1017700002D12B68002B00D16065616B2E600029BF
:10178000C8D023004433994202D0280000F0B0F9B9
:1017900000206063BFE70123216A2800B847431C8B
:1017A000C5D12B68002BC2D01D2B01D0162B01D127
:1017B0002E60AFE74023A2891343A381ABE7402308
:1017C0000B430120A3814042A5E70F69002FA1D060
:1017D0000B680F60DB1B01930023920700D14B695C
:1017E000A360019B002B00DC94E7019B3A00216A77
:1017F0002800A66AB047002803DC4023A2891343CF
:10180000DFE7019B3F181B1A0193EAE70100402024
:101810000B6970B505000C00002B01D1002070BDD4
:10182000002804D08369002B01D100F05FF80B4B36
:101830009C4209D16C680C22A35E002BEED02100E3
:101840002800FFF75BFFEAE7054B9C4201D1AC683B
:10185000F1E7044B9C42EED1EC68ECE74C21000030
:101860006C2100002C21000010B5024900F0B2F8F4
:1018700010BDC04611180000002310B5040003601D
:101880004360836081814366C281036143618361F8
:10189000190008225C30FFF7EAFD054B2462636201
:1018A000044BA362044BE362044B236310BDC046A8
:1018B000651C00008D1C0000C51C0000F11C000010
:1018C00070B568254A1E55430E002900743100F09A
:1018D00059F9041E08D000212A00016046600C302E
:1018E000A0606832FFF7C3FD200070BD836913B5A7
:1018F0000400002B28D18364C3640365134B144A8E
:101900001B6882620193984201D101238361200008
:1019100000F020F86060200000F01CF8A0602000BB
:1019200000F018F80022E06004216068FFF7A4FFCF
:1019300001220921A068FFF79FFF02221221E0681F
:10194000FFF79AFF0123A36113BDC04628210000C1
:1019500069180000F8B51E4B07001E68B369002B1C
:1019600002D13000FFF7C2FF4836B4687368013B0C
:1019700004D53368002B07D03668F6E70C22A55E45
:10198000002D0DD06834F2E704213800FFF798FFEE
:1019900030600028F0D10C2304003B602000F8BD2B
:1019A000012320005B42E3810233A3816566256049
:1019B000A560656025616561A561082229005C302C
:1019C000FFF755FD6563A563A564E564E6E7C046DA
:1019D00028210000F7B504000700002601914834D3
:1019E000002C01D13000FEBD6368A5680093009B08
:1019F000013B009301D52468F2E7AB89012B08D99C
:101A00000E22AB5E013304D029003800019B9847B9
:101A100006436835EBE7000070B50E001D000E238D
:101A2000C95E90B01400002907DA00232B60B38947
:101A30001B0611D48023DB000FE001AA00F084F91B
:101A40000028F2DBF022029B12021340054A9B1889
:101A50005A4253412B60EDE740230020236010B031
:101A600070BDC04600E0FFFFF7B502268B89050078
:101A70000C00334206D02300473323602361012347
:101A80006361F7BD01AB6A46FFF7C6FF0099070027
:101A9000280000F077F8002808D10C22A35E9A05F0
:101AA000EFD4032293431E43A681E4E70F4BAB62BE
:101AB0008023A28920601343A381009B206163617E
:101AC000019B002B0DD00E23E15E280000F04EF9A3
:101AD000002806D00322A38993431A00012313434D
:101AE000A381A0893843A081CBE7C04669180000D4
:101AF00070B50500002910D00C1F2368002B00DAF8
:101B0000E418280000F058F91D4A1368002B05D18D
:101B100063601460280000F050F970BDA34209D939
:101B2000216860188342F3D118685B68411821600E
:101B3000EEE713005A68002A01D0A242F9D91968C9
:101B40005818A0420BD12068091858181960824211
:101B5000E0D110685268411819605A60DAE7A04273
:101B600002D90C232B60D5E721686018824203D18B
:101B7000106852684118216062605C60CAE7C04624
:101B800000010020032370B5CD1C9D4308350600DD
:101B90000C2D1ED20C25A9421DD8300000F00CF9E6
:101BA000254A14682100002919D1244C2368002BF0
:101BB00003D1300000F044F820602900300000F02C
:101BC0003FF8431C2CD10C233000336000F0F5F8B3
:101BD00003E0002DDFDA0C233360002070BD0B68BA
:101BE0005B1B1AD40B2B03D90B60CC18256003E0C8
:101BF0008C420ED163681360300000F0DEF82000E4
:101C000007220B30231D9043C31AE7D05A42E250FB
:101C1000E4E74B6863600C00EEE70C004968C2E73C
:101C20000323C41C9C43A042E0D0211A300000F0E2
:101C300007F8431CDAD1C6E70001002004010020A8
:101C4000002370B5064C05000800236000F0F2F890
:101C5000431C03D12368002B00D02B6070BDC0460D
:101C60001003002070B50C000E25495F00F0A6F8A7
:101C7000002803DB636D1B18636570BDA389024AEE
:101C80001340A381F9E7C046FFEFFFFFF8B51F003F
:101C90008B8905000C001600DB0505D50E23C95EF7
:101CA0000022022300F074F8A389054A280013409B
:101CB000A38132000E23E15E3B0000F01FF8F8BD67
:101CC000FFEFFFFF70B50C000E25495F00F060F8D4
:101CD000A389421C03D1054A1340A38170BD802211
:101CE00052011343A3816065F8E7C046FFEFFFFF91
:101CF00010B50E23C95E00F015F810BD70B50500D3
:101D0000080011000022064C22601A0000F0A0F822
:101D1000431C03D12368002B00D02B6070BDC0464C
:101D200010030020002370B5064C05000800236056
:101D300000F058F8431C03D12368002B00D02B601F
:101D400070BDC04610030020002370B5064C05008E
:101D500008001100236000F04DF8431C03D12368F4
:101D6000002B00D02B6070BD10030020002370B545
:101D7000064C05000800236000F044F8431C03D122
:101D80002368002B00D02B6070BDC04610030020DC
:101D900070B50500080011000022064C22601A00F0
:101DA00000F038F8431C03D12368002B00D02B60CF
:101DB00070BDC046100300207047704770B5050025
:101DC000080011000022064C22601A0000F02AF8D8
:101DD000431C03D12368002B00D02B6070BDC0468C
:101DE0001003002058220120014B40421A60704726
:101DF0001003002058220120014B40421A60704716
:101E0000100300205822024B00201A607047C04681
:101E10001003002058220120014B40421A607047F5
:101E20001003002058220120014B40421A607047E5
:101E300010030020044A1368002B03D01818106008
:101E400018007047014BF9E7080100201403002037
:101E500058220120014B40421A60704710030020B5
:101E6000F8B5C046F8BC08BC9E467047F8B5C046F9
:101E7000F8BC08BC9E46704748656C6C6F0000005B
:101E800004030904120100020200004041234D0036
:101E9000000201020001000041726475696E6F204A
:101EA0004C4C430041726475696E6F205A65726FC5
:101EB000000002A544A5000008000000100000007A
:101EC0002000000040000000800000000001000031
:101ED00000020000000400005B41726475696E6FCF
:101EE0003A58595A505D0000322E30000A0D000059
:101EF0007600000020000000580A0D00590A0D006D
:101F00005A000000230A0D003E0000005D0C000096
:101F10007D0C00009D0C0000C10C0000DD0C0000D9
:101F2000C10C0000090D00000000211042206330A8
:101F30008440A550C660E770088129914AA16BB121
:101F40008CC1ADD1CEE1EFF13112100273325222C9
:101F5000B5529442F772D662399318837BB35AA371
:101F6000BDD39CC3FFF3DEE3622443342004011499
:101F7000E664C774A44485546AA54BB528850995C1
:101F8000EEE5CFF5ACC58DD5533672261116300669
:101F9000D776F6669556B4465BB77AA71997388711
:101FA000DFF7FEE79DD7BCC7C448E5588668A77829
:101FB0004008611802282338CCC9EDD98EE9AFF961
:101FC000488969990AA92BB9F55AD44AB77A966A09
:101FD000711A500A333A122AFDDBDCCBBFFB9EEBB1
:101FE000799B588B3BBB1AABA66C877CE44CC55CD9
:101FF000222C033C600C411CAEED8FFDECCDCDDD01
:102000002AAD0BBD688D499D977EB66ED55EF44EA8
:10201000133E322E511E700E9FFFBEEFDDDFFCCF50
:102020001BBF3AAF599F788F8891A981CAB1EBA1A4
:102030000CD12DC14EF16FE18010A100C230E32020
:102040000450254046706760B9839893FBA3DAB3C8
:102050003DC31CD37FE35EF3B1029012F322D23270
:102060003542145277625672EAB5CBA5A895898598
:102070006EF54FE52CD50DC5E234C324A0148104C0
:102080006674476424540544DBA7FAB79987B89768
:102090005FE77EF71DC73CD7D326F2369106B01610
:1020A00057667676154634564CD96DC90EF92FE928
:1020B000C899E9898AB9ABA9445865480678276860
:1020C000C018E1088238A3287DCB5CDB3FEB1EFB08
:1020D000F98BD89BBBAB9ABB754A545A376A167AB0
:1020E000F10AD01AB32A923A2EFD0FED6CDD4DCDD8
:1020F000AABD8BADE89DC98D267C076C645C454C00
:10210000A23C832CE01CC10C1FEF3EFF5DCF7CDFA7
:102110009BAFBABFD98FF89F176E367E554E745E4F
:10212000932EB23ED10EF01E54000020000000009D
:10213000000000000000000000000000000000009F
:10214000000000000000000000000000000000008F
:10215000000000000000000000000000000000007F
:10216000000000000000000000000000000000006F
:10217000000000000000000000000000000000005F
:10218000000000000000000000000000000000004F
:10219000011400000902430002010080320904001A
:1021A00000010202000005240010010424020005C1
:1021B000240600010524010001070583030800FF30
:1021C00009040100020A0000000705810240000026
:1021D000070502024000000000C2010000000800E4
:1021E00054000020000000004C2100006C21000081
:1021F0002C21000000000000000000000000000092
:1022000000000000000000000000000000000000CE
:1022100000000000000000000000000000000000BE
:1022200000000000000000000000000000000000AE
:10223000000000000000000000000000000000009E
:1022400000000000690000004100000000000000E4
:04000003000005D91B
:00000001FF
